:100000000C942A000C9434000C9434000C943400AA
:100010000C9434000C9434000C9434000C94340090
:100020000C9434000C9434000C9434000C94340080
:100030000C9434000C9434000C9434000C94340070
:100040000C9434000C9434000C9434000C94340060
:100050000C94340011241FBECFE5D8E0DEBFCDBF25
:100060000E945A000C94AC000C940000EBE3F0E00A
:1000700080818E7F80838081826080830895EBE31E
:10008000F0E080818160808380818D7F808308950E
:10009000EBE3F0E0808181608083808182608083F7
:1000A0000895EBE3F0E080818E7F808380818D7FF7
:1000B00080830895EF92FF920F931F93CF93DF9366
:1000C000E1E3F0E080818E7F808380818D7F80837B
:1000D000EAE3F0E0808181608083808182608083B8
:1000E00020ED37E0C8ECD0E000E310E00F2EF0ED9B
:1000F000EF2EF7E0FF2EF02D05C0CE010197F1F7AE
:100100002150304021153105C1F7F801808180FD73
:1001100009C00E9436009701CE010197F1F72150E6
:100120003040D1F7F801808181FD09C00E943F0075
:100130009701CE010197F1F721503040D1F7F80136
:1001400080810E9451009701CE010197F1F7215063
:0C0150003040D1F79701D6CFF894FFCFD4
:00000001FF
